{
  "_format": "hh-sol-artifact-1",
  "contractName": "DutchAuction",
  "sourceName": "contracts/DutchAuction.sol",
  "abi": [
    {
      "inputs": [
        {
          "internalType": "uint256",
          "name": "_startingPrice",
          "type": "uint256"
        },
        {
          "internalType": "uint256",
          "name": "_discountRate",
          "type": "uint256"
        },
        {
          "internalType": "string",
          "name": "_item",
          "type": "string"
        }
      ],
      "stateMutability": "nonpayable",
      "type": "constructor"
    },
    {
      "anonymous": false,
      "inputs": [
        {
          "indexed": false,
          "internalType": "uint256",
          "name": "price",
          "type": "uint256"
        },
        {
          "indexed": false,
          "internalType": "address",
          "name": "buyer",
          "type": "address"
        }
      ],
      "name": "Bought",
      "type": "event"
    },
    {
      "inputs": [],
      "name": "buy",
      "outputs": [],
      "stateMutability": "payable",
      "type": "function"
    },
    {
      "inputs": [],
      "name": "discountRate",
      "outputs": [
        {
          "internalType": "uint256",
          "name": "",
          "type": "uint256"
        }
      ],
      "stateMutability": "view",
      "type": "function"
    },
    {
      "inputs": [],
      "name": "endsAt",
      "outputs": [
        {
          "internalType": "uint256",
          "name": "",
          "type": "uint256"
        }
      ],
      "stateMutability": "view",
      "type": "function"
    },
    {
      "inputs": [],
      "name": "getPrice",
      "outputs": [
        {
          "internalType": "uint256",
          "name": "",
          "type": "uint256"
        }
      ],
      "stateMutability": "view",
      "type": "function"
    },
    {
      "inputs": [],
      "name": "item",
      "outputs": [
        {
          "internalType": "string",
          "name": "",
          "type": "string"
        }
      ],
      "stateMutability": "view",
      "type": "function"
    },
    {
      "inputs": [],
      "name": "nextBlock",
      "outputs": [],
      "stateMutability": "nonpayable",
      "type": "function"
    },
    {
      "inputs": [],
      "name": "seller",
      "outputs": [
        {
          "internalType": "address payable",
          "name": "",
          "type": "address"
        }
      ],
      "stateMutability": "view",
      "type": "function"
    },
    {
      "inputs": [],
      "name": "startAt",
      "outputs": [
        {
          "internalType": "uint256",
          "name": "",
          "type": "uint256"
        }
      ],
      "stateMutability": "view",
      "type": "function"
    },
    {
      "inputs": [],
      "name": "startingPrice",
      "outputs": [
        {
          "internalType": "uint256",
          "name": "",
          "type": "uint256"
        }
      ],
      "stateMutability": "view",
      "type": "function"
    },
    {
      "inputs": [],
      "name": "stopped",
      "outputs": [
        {
          "internalType": "bool",
          "name": "",
          "type": "bool"
        }
      ],
      "stateMutability": "view",
      "type": "function"
    }
  ],
  "bytecode": "0x6101206040523480156200001257600080fd5b506040516200108c3803806200108c833981810160405281019062000038919062000251565b6202a30082620000499190620003f9565b8310156200008e576040517f08c379a0000000000000000000000000000000000000000000000000000000008152600401620000859062000302565b60405180910390fd5b3373ffffffffffffffffffffffffffffffffffffffff1660808173ffffffffffffffffffffffffffffffffffffffff1660601b815250508260a081815250508161010081815250504260c081815250506202a30042620000ef91906200039c565b60e0818152505080600090805190602001906200010e92919062000118565b5050505062000577565b82805462000126906200049a565b90600052602060002090601f0160209004810192826200014a576000855562000196565b82601f106200016557805160ff191683800117855562000196565b8280016001018555821562000196579182015b828111156200019557825182559160200191906001019062000178565b5b509050620001a59190620001a9565b5090565b5b80821115620001c4576000816000905550600101620001aa565b5090565b6000620001df620001d98462000358565b62000324565b905082815260208101848484011115620001f857600080fd5b6200020584828562000464565b509392505050565b600082601f8301126200021f57600080fd5b815162000231848260208601620001c8565b91505092915050565b6000815190506200024b816200055d565b92915050565b6000806000606084860312156200026757600080fd5b600062000277868287016200023a565b93505060206200028a868287016200023a565b925050604084015167ffffffffffffffff811115620002a857600080fd5b620002b6868287016200020d565b9150509250925092565b6000620002cf600e836200038b565b91507f707269636520746f6f206c6f77210000000000000000000000000000000000006000830152602082019050919050565b600060208201905081810360008301526200031d81620002c0565b9050919050565b6000604051905081810181811067ffffffffffffffff821117156200034e576200034d6200052e565b5b8060405250919050565b600067ffffffffffffffff8211156200037657620003756200052e565b5b601f19601f8301169050602081019050919050565b600082825260208201905092915050565b6000620003a9826200045a565b9150620003b6836200045a565b9250827fffffffffffffffffffffffffffffffffffffffffffffffffffffffffffffffff03821115620003ee57620003ed620004d0565b5b828201905092915050565b600062000406826200045a565b915062000413836200045a565b9250817fffffffffffffffffffffffffffffffffffffffffffffffffffffffffffffffff04831182151516156200044f576200044e620004d0565b5b828202905092915050565b6000819050919050565b60005b838110156200048457808201518184015260208101905062000467565b8381111562000494576000848401525b50505050565b60006002820490506001821680620004b357607f821691505b60208210811415620004ca57620004c9620004ff565b5b50919050565b7f4e487b7100000000000000000000000000000000000000000000000000000000600052601160045260246000fd5b7f4e487b7100000000000000000000000000000000000000000000000000000000600052602260045260246000fd5b7f4e487b7100000000000000000000000000000000000000000000000000000000600052604160045260246000fd5b62000568816200045a565b81146200057457600080fd5b50565b60805160601c60a05160c05160e05161010051610aaa620005e2600039600081816102f301526105bb01526000818161023501526103a30152600081816102c20152610573015260008181610321015261059701526000818161021101526104b50152610aaa6000f3fe6080604052600436106100915760003560e01c8063a6f2ae3a11610059578063a6f2ae3a14610159578063c744656514610163578063d6fbf2021461018e578063e6c0e6d5146101b9578063f2a4a82e146101e457610091565b806308551a53146100965780630a09284a146100c157806375f12b21146100ec57806383788fce1461011757806398d5fdca1461012e575b600080fd5b3480156100a257600080fd5b506100ab61020f565b6040516100b891906107a0565b60405180910390f35b3480156100cd57600080fd5b506100d6610233565b6040516100e39190610858565b60405180910390f35b3480156100f857600080fd5b50610101610257565b60405161010e91906107bb565b60405180910390f35b34801561012357600080fd5b5061012c61026a565b005b34801561013a57600080fd5b5061014361026c565b6040516101509190610858565b60405180910390f35b610161610351565b005b34801561016f57600080fd5b50610178610571565b6040516101859190610858565b60405180910390f35b34801561019a57600080fd5b506101a3610595565b6040516101b09190610858565b60405180910390f35b3480156101c557600080fd5b506101ce6105b9565b6040516101db9190610858565b60405180910390f35b3480156101f057600080fd5b506101f96105dd565b60405161020691906107d6565b60405180910390f35b7f000000000000000000000000000000000000000000000000000000000000000081565b7f000000000000000000000000000000000000000000000000000000000000000081565b600160009054906101000a900460ff1681565b565b6000600160009054906101000a900460ff16156102be576040517f08c379a00000000000000000000000000000000000000000000000000000000081526004016102b590610838565b60405180910390fd5b60007f0000000000000000000000000000000000000000000000000000000000000000426102ec9190610912565b90506000817f000000000000000000000000000000000000000000000000000000000000000061031c91906108b8565b9050807f000000000000000000000000000000000000000000000000000000000000000061034a9190610912565b9250505090565b600160009054906101000a900460ff16156103a1576040517f08c379a000000000000000000000000000000000000000000000000000000000815260040161039890610838565b60405180910390fd5b7f00000000000000000000000000000000000000000000000000000000000000004210610403576040517f08c379a00000000000000000000000000000000000000000000000000000000081526004016103fa90610818565b60405180910390fd5b600061040d61026c565b905080341015610452576040517f08c379a0000000000000000000000000000000000000000000000000000000008152600401610449906107f8565b60405180910390fd5b600081346104609190610912565b905060008111156104b3573373ffffffffffffffffffffffffffffffffffffffff166108fc829081150290604051600060405180830381858888f193505050501580156104b1573d6000803e3d6000fd5b505b7f000000000000000000000000000000000000000000000000000000000000000073ffffffffffffffffffffffffffffffffffffffff166108fc479081150290604051600060405180830381858888f19350505050158015610519573d6000803e3d6000fd5b5060018060006101000a81548160ff0219169083151502179055507fc54c8cc1c7525b424ec71b685c00d9355581a280488018c22005332ceb2fd4068233604051610565929190610873565b60405180910390a15050565b7f000000000000000000000000000000000000000000000000000000000000000081565b7f000000000000000000000000000000000000000000000000000000000000000081565b7f000000000000000000000000000000000000000000000000000000000000000081565b600080546105ea906109d3565b80601f0160208091040260200160405190810160405280929190818152602001828054610616906109d3565b80156106635780601f1061063857610100808354040283529160200191610663565b820191906000526020600020905b81548152906001019060200180831161064657829003601f168201915b505050505081565b61067481610958565b82525050565b61068381610946565b82525050565b6106928161096a565b82525050565b60006106a38261089c565b6106ad81856108a7565b93506106bd8185602086016109a0565b6106c681610a63565b840191505092915050565b60006106de6008836108a7565b91507f746f6f206c6f77210000000000000000000000000000000000000000000000006000830152602082019050919050565b600061071e6009836108a7565b91507f746f6f206c6174652100000000000000000000000000000000000000000000006000830152602082019050919050565b600061075e6014836108a7565b91507f68617320616c72656164792073746f70706564210000000000000000000000006000830152602082019050919050565b61079a81610996565b82525050565b60006020820190506107b5600083018461066b565b92915050565b60006020820190506107d06000830184610689565b92915050565b600060208201905081810360008301526107f08184610698565b905092915050565b60006020820190508181036000830152610811816106d1565b9050919050565b6000602082019050818103600083015261083181610711565b9050919050565b6000602082019050818103600083015261085181610751565b9050919050565b600060208201905061086d6000830184610791565b92915050565b60006040820190506108886000830185610791565b610895602083018461067a565b9392505050565b600081519050919050565b600082825260208201905092915050565b60006108c382610996565b91506108ce83610996565b9250817fffffffffffffffffffffffffffffffffffffffffffffffffffffffffffffffff048311821515161561090757610906610a05565b5b828202905092915050565b600061091d82610996565b915061092883610996565b92508282101561093b5761093a610a05565b5b828203905092915050565b600061095182610976565b9050919050565b600061096382610976565b9050919050565b60008115159050919050565b600073ffffffffffffffffffffffffffffffffffffffff82169050919050565b6000819050919050565b60005b838110156109be5780820151818401526020810190506109a3565b838111156109cd576000848401525b50505050565b600060028204905060018216806109eb57607f821691505b602082108114156109ff576109fe610a34565b5b50919050565b7f4e487b7100000000000000000000000000000000000000000000000000000000600052601160045260246000fd5b7f4e487b7100000000000000000000000000000000000000000000000000000000600052602260045260246000fd5b6000601f19601f830116905091905056fea2646970667358221220981509db10a83b6b76a4abf4e171c9d99bbcd784f6074443420dd4aab37db23064736f6c63430008000033",
  "linkReferences": {},
  "deployedLinkReferences": {}
}